{
  "contractName": "EthSwap",
  "abi": [
    {
      "inputs": [
        {
          "internalType": "contract Token",
          "name": "_token",
          "type": "address"
        },
        {
          "internalType": "contract BroToken",
          "name": "_broToken",
          "type": "address"
        }
      ],
      "payable": false,
      "stateMutability": "nonpayable",
      "type": "constructor"
    },
    {
      "anonymous": false,
      "inputs": [
        {
          "indexed": false,
          "internalType": "address",
          "name": "account",
          "type": "address"
        },
        {
          "indexed": false,
          "internalType": "address",
          "name": "token",
          "type": "address"
        },
        {
          "indexed": false,
          "internalType": "uint256",
          "name": "amount",
          "type": "uint256"
        },
        {
          "indexed": false,
          "internalType": "uint256",
          "name": "rate",
          "type": "uint256"
        }
      ],
      "name": "TokensPurchased",
      "type": "event"
    },
    {
      "anonymous": false,
      "inputs": [
        {
          "indexed": false,
          "internalType": "address",
          "name": "account",
          "type": "address"
        },
        {
          "indexed": false,
          "internalType": "address",
          "name": "token",
          "type": "address"
        },
        {
          "indexed": false,
          "internalType": "uint256",
          "name": "amount",
          "type": "uint256"
        },
        {
          "indexed": false,
          "internalType": "uint256",
          "name": "rate",
          "type": "uint256"
        }
      ],
      "name": "TokensSold",
      "type": "event"
    },
    {
      "constant": true,
      "inputs": [
        {
          "internalType": "address",
          "name": "",
          "type": "address"
        }
      ],
      "name": "accountTransactionCount",
      "outputs": [
        {
          "internalType": "uint256",
          "name": "",
          "type": "uint256"
        }
      ],
      "payable": false,
      "stateMutability": "view",
      "type": "function"
    },
    {
      "constant": true,
      "inputs": [],
      "name": "broToken",
      "outputs": [
        {
          "internalType": "contract BroToken",
          "name": "",
          "type": "address"
        }
      ],
      "payable": false,
      "stateMutability": "view",
      "type": "function"
    },
    {
      "constant": true,
      "inputs": [],
      "name": "broTokenRate",
      "outputs": [
        {
          "internalType": "uint256",
          "name": "",
          "type": "uint256"
        }
      ],
      "payable": false,
      "stateMutability": "view",
      "type": "function"
    },
    {
      "constant": true,
      "inputs": [],
      "name": "name",
      "outputs": [
        {
          "internalType": "string",
          "name": "",
          "type": "string"
        }
      ],
      "payable": false,
      "stateMutability": "view",
      "type": "function"
    },
    {
      "constant": true,
      "inputs": [],
      "name": "token",
      "outputs": [
        {
          "internalType": "contract Token",
          "name": "",
          "type": "address"
        }
      ],
      "payable": false,
      "stateMutability": "view",
      "type": "function"
    },
    {
      "constant": true,
      "inputs": [],
      "name": "tokenRate",
      "outputs": [
        {
          "internalType": "uint256",
          "name": "",
          "type": "uint256"
        }
      ],
      "payable": false,
      "stateMutability": "view",
      "type": "function"
    },
    {
      "constant": true,
      "inputs": [],
      "name": "transactionCount",
      "outputs": [
        {
          "internalType": "uint256",
          "name": "",
          "type": "uint256"
        }
      ],
      "payable": false,
      "stateMutability": "view",
      "type": "function"
    },
    {
      "constant": true,
      "inputs": [
        {
          "internalType": "uint256",
          "name": "",
          "type": "uint256"
        }
      ],
      "name": "transactionToAccount",
      "outputs": [
        {
          "internalType": "address",
          "name": "",
          "type": "address"
        }
      ],
      "payable": false,
      "stateMutability": "view",
      "type": "function"
    },
    {
      "constant": true,
      "inputs": [
        {
          "internalType": "uint256",
          "name": "",
          "type": "uint256"
        }
      ],
      "name": "transactions",
      "outputs": [
        {
          "internalType": "uint256",
          "name": "id",
          "type": "uint256"
        },
        {
          "internalType": "string",
          "name": "tokenBuyName",
          "type": "string"
        },
        {
          "internalType": "uint256",
          "name": "tokenBuyAmount",
          "type": "uint256"
        },
        {
          "internalType": "string",
          "name": "tokenSoldName",
          "type": "string"
        },
        {
          "internalType": "uint256",
          "name": "tokenSoldAmount",
          "type": "uint256"
        },
        {
          "internalType": "uint256",
          "name": "timestamps",
          "type": "uint256"
        }
      ],
      "payable": false,
      "stateMutability": "view",
      "type": "function"
    },
    {
      "constant": false,
      "inputs": [
        {
          "internalType": "string",
          "name": "nameToken",
          "type": "string"
        }
      ],
      "name": "buyTokens",
      "outputs": [],
      "payable": true,
      "stateMutability": "payable",
      "type": "function"
    },
    {
      "constant": false,
      "inputs": [
        {
          "internalType": "uint256",
          "name": "_amount",
          "type": "uint256"
        },
        {
          "internalType": "string",
          "name": "nameToken",
          "type": "string"
        }
      ],
      "name": "sellTokens",
      "outputs": [],
      "payable": false,
      "stateMutability": "nonpayable",
      "type": "function"
    }
  ],
  "bytecode": "0x60806040526040518060400160405280601881526020017f4574685377617020496e7374616e742045786368616e6765000000000000000081525060009080519060200190620000519291906200013a565b50606460035561271060045560006008553480156200006f57600080fd5b5060405162001b2a38038062001b2a833981810160405260408110156200009557600080fd5b81019080805190602001909291908051906020019092919050505081600160006101000a81548173ffffffffffffffffffffffffffffffffffffffff021916908373ffffffffffffffffffffffffffffffffffffffff16021790555080600260006101000a81548173ffffffffffffffffffffffffffffffffffffffff021916908373ffffffffffffffffffffffffffffffffffffffff1602179055505050620001e9565b828054600181600116156101000203166002900490600052602060002090601f016020900481019282601f106200017d57805160ff1916838001178555620001ae565b82800160010185558215620001ae579182015b82811115620001ad57825182559160200191906001019062000190565b5b509050620001bd9190620001c1565b5090565b620001e691905b80821115620001e2576000816000905550600101620001c8565b5090565b90565b61193180620001f96000396000f3fe60806040526004361061009c5760003560e01c8063710d8f6511610064578063710d8f65146102e95780639ace38c214610314578063b756ad7814610450578063b77bf60014610522578063b7f065901461054d578063fc0c546a146105b25761009c565b806306fdde03146100a15780632b8d5fc11461013157806331711884146101885780633b652f87146101b35780636f85e62c1461022e575b600080fd5b3480156100ad57600080fd5b506100b6610609565b6040518080602001828103825283818151815260200191508051906020019080838360005b838110156100f65780820151818401526020810190506100db565b50505050905090810190601f1680156101235780820380516001836020036101000a031916815260200191505b509250505060405180910390f35b34801561013d57600080fd5b506101466106a7565b604051808273ffffffffffffffffffffffffffffffffffffffff1673ffffffffffffffffffffffffffffffffffffffff16815260200191505060405180910390f35b34801561019457600080fd5b5061019d6106cd565b6040518082815260200191505060405180910390f35b3480156101bf57600080fd5b506101ec600480360360208110156101d657600080fd5b81019080803590602001909291905050506106d3565b604051808273ffffffffffffffffffffffffffffffffffffffff1673ffffffffffffffffffffffffffffffffffffffff16815260200191505060405180910390f35b6102e76004803603602081101561024457600080fd5b810190808035906020019064010000000081111561026157600080fd5b82018360208201111561027357600080fd5b8035906020019184600183028401116401000000008311171561029557600080fd5b91908080601f016020809104026020016040519081016040528093929190818152602001838380828437600081840152601f19601f820116905080830192505050505050509192919290505050610706565b005b3480156102f557600080fd5b506102fe610eb6565b6040518082815260200191505060405180910390f35b34801561032057600080fd5b5061034d6004803603602081101561033757600080fd5b8101908080359060200190929190505050610ebc565b604051808781526020018060200186815260200180602001858152602001848152602001838103835288818151815260200191508051906020019080838360005b838110156103a957808201518184015260208101905061038e565b50505050905090810190601f1680156103d65780820380516001836020036101000a031916815260200191505b50838103825286818151815260200191508051906020019080838360005b8381101561040f5780820151818401526020810190506103f4565b50505050905090810190601f16801561043c5780820380516001836020036101000a031916815260200191505b509850505050505050505060405180910390f35b34801561045c57600080fd5b506105206004803603604081101561047357600080fd5b81019080803590602001909291908035906020019064010000000081111561049a57600080fd5b8201836020820111156104ac57600080fd5b803590602001918460018302840111640100000000831117156104ce57600080fd5b91908080601f016020809104026020016040519081016040528093929190818152602001838380828437600081840152601f19601f820116905080830192505050505050509192919290505050611028565b005b34801561052e57600080fd5b50610537611813565b6040518082815260200191505060405180910390f35b34801561055957600080fd5b5061059c6004803603602081101561057057600080fd5b81019080803573ffffffffffffffffffffffffffffffffffffffff169060200190929190505050611819565b6040518082815260200191505060405180910390f35b3480156105be57600080fd5b506105c7611831565b604051808273ffffffffffffffffffffffffffffffffffffffff1673ffffffffffffffffffffffffffffffffffffffff16815260200191505060405180910390f35b60008054600181600116156101000203166002900480601f01602080910402602001604051908101604052809291908181526020018280546001816001161561010002031660029004801561069f5780601f106106745761010080835404028352916020019161069f565b820191906000526020600020905b81548152906001019060200180831161068257829003601f168201915b505050505081565b600260009054906101000a900473ffffffffffffffffffffffffffffffffffffffff1681565b60035481565b60066020528060005260406000206000915054906101000a900473ffffffffffffffffffffffffffffffffffffffff1681565b60008090506000809050600080905060405160200180807f4441505000000000000000000000000000000000000000000000000000000000815250600401905060405160208183030381529060405280519060200120846040516020018082805190602001908083835b602083106107935780518252602082019150602081019050602083039250610770565b6001836020036101000a038019825116818451168082178552505050505050905001915050604051602081830303815290604052805190602001201415610aa25760035434029050670de0b6b3a764000034816107ec57fe5b049250670de0b6b3a764000060035434028161080457fe5b04915080600160009054906101000a900473ffffffffffffffffffffffffffffffffffffffff1673ffffffffffffffffffffffffffffffffffffffff166370a08231306040518263ffffffff1660e01b8152600401808273ffffffffffffffffffffffffffffffffffffffff1673ffffffffffffffffffffffffffffffffffffffff16815260200191505060206040518083038186803b1580156108a757600080fd5b505afa1580156108bb573d6000803e3d6000fd5b505050506040513d60208110156108d157600080fd5b810190808051906020019092919050505010156108ed57600080fd5b600160009054906101000a900473ffffffffffffffffffffffffffffffffffffffff1673ffffffffffffffffffffffffffffffffffffffff1663a9059cbb33836040518363ffffffff1660e01b8152600401808373ffffffffffffffffffffffffffffffffffffffff1673ffffffffffffffffffffffffffffffffffffffff16815260200182815260200192505050602060405180830381600087803b15801561099657600080fd5b505af11580156109aa573d6000803e3d6000fd5b505050506040513d60208110156109c057600080fd5b8101908080519060200190929190505050507f6faf93231a456e552dbc9961f58d9713ee4f2e69d15f1975b050ef0911053a7b33600160009054906101000a900473ffffffffffffffffffffffffffffffffffffffff1683600354604051808573ffffffffffffffffffffffffffffffffffffffff1673ffffffffffffffffffffffffffffffffffffffff1681526020018473ffffffffffffffffffffffffffffffffffffffff1673ffffffffffffffffffffffffffffffffffffffff16815260200183815260200182815260200194505050505060405180910390a1610d6c565b60045434029050670de0b6b3a76400003481610aba57fe5b049250670de0b6b3a7640000600454340281610ad257fe5b04915080600260009054906101000a900473ffffffffffffffffffffffffffffffffffffffff1673ffffffffffffffffffffffffffffffffffffffff166370a08231306040518263ffffffff1660e01b8152600401808273ffffffffffffffffffffffffffffffffffffffff1673ffffffffffffffffffffffffffffffffffffffff16815260200191505060206040518083038186803b158015610b7557600080fd5b505afa158015610b89573d6000803e3d6000fd5b505050506040513d6020811015610b9f57600080fd5b81019080805190602001909291905050501015610bbb57600080fd5b600260009054906101000a900473ffffffffffffffffffffffffffffffffffffffff1673ffffffffffffffffffffffffffffffffffffffff1663a9059cbb33836040518363ffffffff1660e01b8152600401808373ffffffffffffffffffffffffffffffffffffffff1673ffffffffffffffffffffffffffffffffffffffff16815260200182815260200192505050602060405180830381600087803b158015610c6457600080fd5b505af1158015610c78573d6000803e3d6000fd5b505050506040513d6020811015610c8e57600080fd5b8101908080519060200190929190505050507f6faf93231a456e552dbc9961f58d9713ee4f2e69d15f1975b050ef0911053a7b33600260009054906101000a900473ffffffffffffffffffffffffffffffffffffffff1683600454604051808573ffffffffffffffffffffffffffffffffffffffff1673ffffffffffffffffffffffffffffffffffffffff1681526020018473ffffffffffffffffffffffffffffffffffffffff1673ffffffffffffffffffffffffffffffffffffffff16815260200183815260200182815260200194505050505060405180910390a15b6008600081548092919060010191905055506040518060c0016040528060085481526020018581526020018381526020016040518060400160405280600381526020017f4554480000000000000000000000000000000000000000000000000000000000815250815260200184815260200142815250600560006008548152602001908152602001600020600082015181600001556020820151816001019080519060200190610e1d929190611857565b50604082015181600201556060820151816003019080519060200190610e44929190611857565b506080820151816004015560a082015181600501559050503360066000600854815260200190815260200160002060006101000a81548173ffffffffffffffffffffffffffffffffffffffff021916908373ffffffffffffffffffffffffffffffffffffffff16021790555050505050565b60045481565b6005602052806000526040600020600091509050806000015490806001018054600181600116156101000203166002900480601f016020809104026020016040519081016040528092919081815260200182805460018160011615610100020316600290048015610f6e5780601f10610f4357610100808354040283529160200191610f6e565b820191906000526020600020905b815481529060010190602001808311610f5157829003601f168201915b505050505090806002015490806003018054600181600116156101000203166002900480601f0160208091040260200160405190810160405280929190818152602001828054600181600116156101000203166002900480156110125780601f10610fe757610100808354040283529160200191611012565b820191906000526020600020905b815481529060010190602001808311610ff557829003601f168201915b5050505050908060040154908060050154905086565b60008090506000809050600080905060405160200180807f4441505000000000000000000000000000000000000000000000000000000000815250600401905060405160208183030381529060405280519060200120846040516020018082805190602001908083835b602083106110b55780518252602082019150602081019050602083039250611092565b6001836020036101000a0380198251168184511680821785525050505050509050019150506040516020818303038152906040528051906020012014156114665784600160009054906101000a900473ffffffffffffffffffffffffffffffffffffffff1673ffffffffffffffffffffffffffffffffffffffff166370a08231336040518263ffffffff1660e01b8152600401808273ffffffffffffffffffffffffffffffffffffffff1673ffffffffffffffffffffffffffffffffffffffff16815260200191505060206040518083038186803b15801561119657600080fd5b505afa1580156111aa573d6000803e3d6000fd5b505050506040513d60208110156111c057600080fd5b810190808051906020019092919050505010156111dc57600080fd5b60035485816111e757fe5b049050670de0b6b3a764000081816111fb57fe5b049250670de0b6b3a7640000858161120f57fe5b049150803073ffffffffffffffffffffffffffffffffffffffff1631101561123657600080fd5b600160009054906101000a900473ffffffffffffffffffffffffffffffffffffffff1673ffffffffffffffffffffffffffffffffffffffff166323b872dd3330886040518463ffffffff1660e01b8152600401808473ffffffffffffffffffffffffffffffffffffffff1673ffffffffffffffffffffffffffffffffffffffff1681526020018373ffffffffffffffffffffffffffffffffffffffff1673ffffffffffffffffffffffffffffffffffffffff1681526020018281526020019350505050602060405180830381600087803b15801561131357600080fd5b505af1158015611327573d6000803e3d6000fd5b505050506040513d602081101561133d57600080fd5b8101908080519060200190929190505050503373ffffffffffffffffffffffffffffffffffffffff166108fc829081150290604051600060405180830381858888f19350505050158015611395573d6000803e3d6000fd5b507f697c42d55a5e1fed3f464ec6f38b32546a0bd368dc8068b065c67566d73f329033600160009054906101000a900473ffffffffffffffffffffffffffffffffffffffff1687600354604051808573ffffffffffffffffffffffffffffffffffffffff1673ffffffffffffffffffffffffffffffffffffffff1681526020018473ffffffffffffffffffffffffffffffffffffffff1673ffffffffffffffffffffffffffffffffffffffff16815260200183815260200182815260200194505050505060405180910390a16116c8565b600454858161147157fe5b049050670de0b6b3a7640000818161148557fe5b049250670de0b6b3a7640000858161149957fe5b049150600260009054906101000a900473ffffffffffffffffffffffffffffffffffffffff1673ffffffffffffffffffffffffffffffffffffffff166323b872dd3330886040518463ffffffff1660e01b8152600401808473ffffffffffffffffffffffffffffffffffffffff1673ffffffffffffffffffffffffffffffffffffffff1681526020018373ffffffffffffffffffffffffffffffffffffffff1673ffffffffffffffffffffffffffffffffffffffff1681526020018281526020019350505050602060405180830381600087803b15801561157957600080fd5b505af115801561158d573d6000803e3d6000fd5b505050506040513d60208110156115a357600080fd5b8101908080519060200190929190505050503373ffffffffffffffffffffffffffffffffffffffff166108fc829081150290604051600060405180830381858888f193505050501580156115fb573d6000803e3d6000fd5b507f697c42d55a5e1fed3f464ec6f38b32546a0bd368dc8068b065c67566d73f329033600260009054906101000a900473ffffffffffffffffffffffffffffffffffffffff1687600454604051808573ffffffffffffffffffffffffffffffffffffffff1673ffffffffffffffffffffffffffffffffffffffff1681526020018473ffffffffffffffffffffffffffffffffffffffff1673ffffffffffffffffffffffffffffffffffffffff16815260200183815260200182815260200194505050505060405180910390a15b6008600081548092919060010191905055506040518060c0016040528060085481526020016040518060400160405280600381526020017f4554480000000000000000000000000000000000000000000000000000000000815250815260200184815260200185815260200183815260200142815250600560006008548152602001908152602001600020600082015181600001556020820151816001019080519060200190611779929190611857565b506040820151816002015560608201518160030190805190602001906117a0929190611857565b506080820151816004015560a082015181600501559050503360066000600854815260200190815260200160002060006101000a81548173ffffffffffffffffffffffffffffffffffffffff021916908373ffffffffffffffffffffffffffffffffffffffff1602179055505050505050565b60085481565b60076020528060005260406000206000915090505481565b600160009054906101000a900473ffffffffffffffffffffffffffffffffffffffff1681565b828054600181600116156101000203166002900490600052602060002090601f016020900481019282601f1061189857805160ff19168380011785556118c6565b828001600101855582156118c6579182015b828111156118c55782518255916020019190600101906118aa565b5b5090506118d391906118d7565b5090565b6118f991905b808211156118f55760008160009055506001016118dd565b5090565b9056fea265627a7a723158200fdaca9cf5bbb4405025676eb6ee9707a60b6967c2f28b48cca12aa5fdc5233764736f6c63430005100032",
  "source": "pragma solidity ^0.5.0;\n\nimport \"./Token.sol\";\nimport \"./BroToken.sol\";\n\ncontract EthSwap {\n  string public name = \"EthSwap Instant Exchange\";\n  Token public token;\n  BroToken public broToken;\n  uint public tokenRate = 100;\n  uint public broTokenRate = 10000;\n\n  struct Transaction {\n    uint id;\n    string tokenBuyName;\n    uint tokenBuyAmount;\n    string tokenSoldName;\n    uint tokenSoldAmount;\n    uint timestamps;\n  }\n\n  mapping (uint => Transaction) public transactions;\n  mapping (uint => address) public transactionToAccount;\n  mapping (address => uint ) public accountTransactionCount;\n\n  uint public transactionCount = 0;\n\n  event TokensPurchased(\n    address account,\n    address token,\n    uint amount,\n    uint rate\n  );\n\n  event TokensSold(\n    address account,\n    address token,\n    uint amount,\n    uint rate\n  );\n\n\n  constructor(Token _token, BroToken _broToken) public {\n      token = _token;\n      broToken = _broToken;\n  }\n\n\n  function buyTokens(string memory nameToken) public payable {\n    uint ethLog =0;\n    uint tokenAmountLog=0;\n    uint tokenAmount=0;\n\n    if(keccak256(abi.encodePacked(nameToken))==keccak256(abi.encodePacked(\"DAPP\"))){\n      // Calculate the number of tokens to buy\n      tokenAmount = msg.value * tokenRate ;\n      ethLog = msg.value / 1000000000000000000 ;\n      tokenAmountLog = ((msg.value * tokenRate) / 1000000000000000000);\n      // Require that EthSwap has enough tokens   - this = adress du contrat\n      require(token.balanceOf(address(this)) >= tokenAmount);\n      // Transfer tokens to the user\n      token.transfer(msg.sender, tokenAmount);\n      // Emit an event\n      emit TokensPurchased(msg.sender, address(token), tokenAmount, tokenRate);\n    }\n    else {\n      tokenAmount = msg.value * broTokenRate ;\n      ethLog = msg.value / 1000000000000000000;\n      tokenAmountLog = ((msg.value * broTokenRate) / 1000000000000000000);\n      // Require that EthSwap has enough tokens   - this = adress du contrat\n      require(broToken.balanceOf(address(this)) >= tokenAmount);\n      // Transfer tokens to the user\n      broToken.transfer(msg.sender, tokenAmount);\n      // Emit an event\n      emit TokensPurchased(msg.sender, address(broToken), tokenAmount, broTokenRate);\n    }\n\n    //Log transaction\n    transactionCount++;\n    transactions[transactionCount] = Transaction(transactionCount, nameToken, tokenAmountLog, 'ETH', ethLog, block.timestamp);\n    transactionToAccount[transactionCount] = msg.sender;\n    //accountTransactionCount[msg.sender]++;\n  }\n\n  function sellTokens(uint _amount, string memory nameToken) public {\n    uint etherAmountLog=0;\n    uint tokenAmountLog=0;\n    uint etherAmount=0;\n\n    if(keccak256(abi.encodePacked(nameToken))==keccak256(abi.encodePacked(\"DAPP\"))){\n      // User can't sell more tokens than they have\n      require(token.balanceOf(msg.sender) >= _amount);\n\n      etherAmount = _amount / tokenRate;\n      etherAmountLog = etherAmount / 1000000000000000000;\n      tokenAmountLog =  _amount / 1000000000000000000;\n\n      // Require that EthSwap has enough Ether\n      require(address(this).balance >= etherAmount);\n\n      // Perform sale\n      token.transferFrom(msg.sender, address(this), _amount);\n      msg.sender.transfer(etherAmount); //transfert la quantit  celui qui appele la fonction\n      // Emit an event\n      emit TokensSold(msg.sender, address(token), _amount, tokenRate);\n    }\n    else {\n      // User can't sell more tokens than they have\n      //require(broToken.balanceOf(msg.sender) >= _amount);\n\n      // Calculate the amount of Ether to redeem\n      etherAmount = _amount / broTokenRate;\n      etherAmountLog = etherAmount / 1000000000000000000;\n      tokenAmountLog =  _amount / 1000000000000000000;\n\n      // Require that EthSwap has enough Ether\n      //require(address(this).balance >= etherAmount);\n\n      // Perform sale\n      broToken.transferFrom(msg.sender, address(this), _amount);\n      msg.sender.transfer(etherAmount); //transfert la quantit  celui qui appele la fonction\n      // Emit an event\n      emit TokensSold(msg.sender, address(broToken), _amount, broTokenRate);\n\n    }\n    //Log transaction\n    transactionCount++;\n    transactions[transactionCount] = Transaction(transactionCount, 'ETH', etherAmountLog, nameToken, tokenAmountLog, block.timestamp);\n    transactionToAccount[transactionCount] = msg.sender;\n    //accountTransactionCount[msg.sender]++;\n\n  }\n\n}\n",
  "sourcePath": "C:/Users/romai/Desktop/PROGRAMMATION/solidity/eth_swap-master/src/contracts/EthSwap.sol",
  "compiler": {
    "name": "solc",
    "version": "0.5.16+commit.9c3226ce.Emscripten.clang"
  },
  "schemaVersion": "3.3.4",
  "updatedAt": "2022-03-02T19:25:32.476Z",
  "networkType": "ethereum",
  "devdoc": {
    "methods": {}
  },
  "userdoc": {
    "methods": {}
  }
}