{
  "contractName": "Gouvernance",
  "abi": [
    {
      "inputs": [
        {
          "internalType": "contract DexToken",
          "name": "_dexToken",
          "type": "address"
        }
      ],
      "payable": false,
      "stateMutability": "nonpayable",
      "type": "constructor"
    },
    {
      "anonymous": false,
      "inputs": [
        {
          "indexed": false,
          "internalType": "address",
          "name": "account",
          "type": "address"
        },
        {
          "indexed": false,
          "internalType": "string",
          "name": "description",
          "type": "string"
        },
        {
          "indexed": false,
          "internalType": "uint256",
          "name": "createAt",
          "type": "uint256"
        },
        {
          "indexed": false,
          "internalType": "uint256",
          "name": "finishAt",
          "type": "uint256"
        }
      ],
      "name": "ProposalCreated",
      "type": "event"
    },
    {
      "anonymous": false,
      "inputs": [
        {
          "indexed": false,
          "internalType": "address",
          "name": "account",
          "type": "address"
        },
        {
          "indexed": false,
          "internalType": "uint256",
          "name": "timestamp",
          "type": "uint256"
        },
        {
          "indexed": false,
          "internalType": "uint256",
          "name": "proposalId",
          "type": "uint256"
        },
        {
          "indexed": false,
          "internalType": "string",
          "name": "result",
          "type": "string"
        }
      ],
      "name": "VoteSent",
      "type": "event"
    },
    {
      "constant": true,
      "inputs": [],
      "name": "dexToken",
      "outputs": [
        {
          "internalType": "contract DexToken",
          "name": "",
          "type": "address"
        }
      ],
      "payable": false,
      "stateMutability": "view",
      "type": "function"
    },
    {
      "constant": true,
      "inputs": [
        {
          "internalType": "uint256",
          "name": "",
          "type": "uint256"
        },
        {
          "internalType": "address",
          "name": "",
          "type": "address"
        }
      ],
      "name": "hasVotedForProposal",
      "outputs": [
        {
          "internalType": "bool",
          "name": "",
          "type": "bool"
        }
      ],
      "payable": false,
      "stateMutability": "view",
      "type": "function"
    },
    {
      "constant": true,
      "inputs": [],
      "name": "nbProposal",
      "outputs": [
        {
          "internalType": "uint256",
          "name": "",
          "type": "uint256"
        }
      ],
      "payable": false,
      "stateMutability": "view",
      "type": "function"
    },
    {
      "constant": true,
      "inputs": [],
      "name": "nbVote",
      "outputs": [
        {
          "internalType": "uint256",
          "name": "",
          "type": "uint256"
        }
      ],
      "payable": false,
      "stateMutability": "view",
      "type": "function"
    },
    {
      "constant": true,
      "inputs": [
        {
          "internalType": "uint256",
          "name": "",
          "type": "uint256"
        }
      ],
      "name": "proposalToAccount",
      "outputs": [
        {
          "internalType": "address",
          "name": "",
          "type": "address"
        }
      ],
      "payable": false,
      "stateMutability": "view",
      "type": "function"
    },
    {
      "constant": true,
      "inputs": [
        {
          "internalType": "uint256",
          "name": "",
          "type": "uint256"
        }
      ],
      "name": "proposals",
      "outputs": [
        {
          "internalType": "uint256",
          "name": "id",
          "type": "uint256"
        },
        {
          "internalType": "string",
          "name": "description",
          "type": "string"
        },
        {
          "internalType": "uint256",
          "name": "createAt",
          "type": "uint256"
        },
        {
          "internalType": "uint256",
          "name": "finishAt",
          "type": "uint256"
        },
        {
          "internalType": "uint256",
          "name": "yes",
          "type": "uint256"
        },
        {
          "internalType": "uint256",
          "name": "no",
          "type": "uint256"
        },
        {
          "internalType": "uint256",
          "name": "total",
          "type": "uint256"
        },
        {
          "internalType": "string",
          "name": "state",
          "type": "string"
        },
        {
          "internalType": "address",
          "name": "createdBy",
          "type": "address"
        }
      ],
      "payable": false,
      "stateMutability": "view",
      "type": "function"
    },
    {
      "constant": true,
      "inputs": [
        {
          "internalType": "uint256",
          "name": "",
          "type": "uint256"
        }
      ],
      "name": "votes",
      "outputs": [
        {
          "internalType": "uint256",
          "name": "prposalId",
          "type": "uint256"
        },
        {
          "internalType": "string",
          "name": "result",
          "type": "string"
        },
        {
          "internalType": "uint256",
          "name": "timestamp",
          "type": "uint256"
        },
        {
          "internalType": "address",
          "name": "voter",
          "type": "address"
        }
      ],
      "payable": false,
      "stateMutability": "view",
      "type": "function"
    },
    {
      "constant": false,
      "inputs": [
        {
          "internalType": "string",
          "name": "_description",
          "type": "string"
        },
        {
          "internalType": "uint256",
          "name": "_finishAt",
          "type": "uint256"
        }
      ],
      "name": "createProposal",
      "outputs": [],
      "payable": false,
      "stateMutability": "nonpayable",
      "type": "function"
    },
    {
      "constant": false,
      "inputs": [
        {
          "internalType": "uint256",
          "name": "_proposalId",
          "type": "uint256"
        },
        {
          "internalType": "uint256",
          "name": "_yes",
          "type": "uint256"
        },
        {
          "internalType": "uint256",
          "name": "_no",
          "type": "uint256"
        }
      ],
      "name": "voteForProposal",
      "outputs": [],
      "payable": false,
      "stateMutability": "nonpayable",
      "type": "function"
    }
  ],
  "bytecode": "0x60806040526000600155600060025534801561001a57600080fd5b506040516114233803806114238339818101604052602081101561003d57600080fd5b8101908080519060200190929190505050806000806101000a81548173ffffffffffffffffffffffffffffffffffffffff021916908373ffffffffffffffffffffffffffffffffffffffff160217905550506113858061009e6000396000f3fe608060405234801561001057600080fd5b50600436106100935760003560e01c80635df81330116100665780635df813301461033557806362d4f8931461041d57806372f24fc114610483578063ec803255146104a1578063f52910cf146104e357610093565b8063013cf08b1461009857806316cfc4c11461020857806335facf7814610252578063536e669314610317575b600080fd5b6100c4600480360360208110156100ae57600080fd5b8101908080359060200190929190505050610551565b604051808a815260200180602001898152602001888152602001878152602001868152602001858152602001806020018473ffffffffffffffffffffffffffffffffffffffff1673ffffffffffffffffffffffffffffffffffffffff16815260200183810383528b818151815260200191508051906020019080838360005b8381101561015e578082015181840152602081019050610143565b50505050905090810190601f16801561018b5780820380516001836020036101000a031916815260200191505b50838103825285818151815260200191508051906020019080838360005b838110156101c45780820151818401526020810190506101a9565b50505050905090810190601f1680156101f15780820380516001836020036101000a031916815260200191505b509b50505050505050505050505060405180910390f35b6102106106ef565b604051808273ffffffffffffffffffffffffffffffffffffffff1673ffffffffffffffffffffffffffffffffffffffff16815260200191505060405180910390f35b6103156004803603604081101561026857600080fd5b810190808035906020019064010000000081111561028557600080fd5b82018360208201111561029757600080fd5b803590602001918460018302840111640100000000831117156102b957600080fd5b91908080601f016020809104026020016040519081016040528093929190818152602001838380828437600081840152601f19601f82011690508083019250505050505050919291929080359060200190929190505050610714565b005b61031f610b14565b6040518082815260200191505060405180910390f35b6103616004803603602081101561034b57600080fd5b8101908080359060200190929190505050610b1a565b60405180858152602001806020018481526020018373ffffffffffffffffffffffffffffffffffffffff1673ffffffffffffffffffffffffffffffffffffffff168152602001828103825285818151815260200191508051906020019080838360005b838110156103df5780820151818401526020810190506103c4565b50505050905090810190601f16801561040c5780820380516001836020036101000a031916815260200191505b509550505050505060405180910390f35b6104696004803603604081101561043357600080fd5b8101908080359060200190929190803573ffffffffffffffffffffffffffffffffffffffff169060200190929190505050610c02565b604051808215151515815260200191505060405180910390f35b61048b610c31565b6040518082815260200191505060405180910390f35b6104e1600480360360608110156104b757600080fd5b81019080803590602001909291908035906020019092919080359060200190929190505050610c37565b005b61050f600480360360208110156104f957600080fd5b8101908080359060200190929190505050611278565b604051808273ffffffffffffffffffffffffffffffffffffffff1673ffffffffffffffffffffffffffffffffffffffff16815260200191505060405180910390f35b6003602052806000526040600020600091509050806000015490806001018054600181600116156101000203166002900480601f0160208091040260200160405190810160405280929190818152602001828054600181600116156101000203166002900480156106035780601f106105d857610100808354040283529160200191610603565b820191906000526020600020905b8154815290600101906020018083116105e657829003601f168201915b505050505090806002015490806003015490806004015490806005015490806006015490806007018054600181600116156101000203166002900480601f0160208091040260200160405190810160405280929190818152602001828054600181600116156101000203166002900480156106bf5780601f10610694576101008083540402835291602001916106bf565b820191906000526020600020905b8154815290600101906020018083116106a257829003601f168201915b5050505050908060080160009054906101000a900473ffffffffffffffffffffffffffffffffffffffff16905089565b6000809054906101000a900473ffffffffffffffffffffffffffffffffffffffff1681565b6127106000809054906101000a900473ffffffffffffffffffffffffffffffffffffffff1673ffffffffffffffffffffffffffffffffffffffff166370a08231336040518263ffffffff1660e01b8152600401808273ffffffffffffffffffffffffffffffffffffffff1673ffffffffffffffffffffffffffffffffffffffff16815260200191505060206040518083038186803b1580156107b557600080fd5b505afa1580156107c9573d6000803e3d6000fd5b505050506040513d60208110156107df57600080fd5b81019080805190602001909291905050501015610864576040517f08c379a00000000000000000000000000000000000000000000000000000000081526004018080602001828103825260208152602001807f596f75206d7573742068617665206174206c656173742031303030302044455881525060200191505060405180910390fd5b60016000815480929190600101919050555060405180610120016040528060015481526020018381526020014281526020018281526020016000815260200160008152602001600081526020016040518060400160405280600b81526020017f496e2050726f677265737300000000000000000000000000000000000000000081525081526020013373ffffffffffffffffffffffffffffffffffffffff168152506003600060015481526020019081526020016000206000820151816000015560208201518160010190805190602001906109419291906112ab565b5060408201518160020155606082015181600301556080820151816004015560a0820151816005015560c0820151816006015560e08201518160070190805190602001906109909291906112ab565b506101008201518160080160006101000a81548173ffffffffffffffffffffffffffffffffffffffff021916908373ffffffffffffffffffffffffffffffffffffffff1602179055509050503360046000600154815260200190815260200160002060006101000a81548173ffffffffffffffffffffffffffffffffffffffff021916908373ffffffffffffffffffffffffffffffffffffffff1602179055507fe7890a17099f7377119f9bcc610136034f38d99a26a59ec393bd3f871d244c1f33834284604051808573ffffffffffffffffffffffffffffffffffffffff1673ffffffffffffffffffffffffffffffffffffffff16815260200180602001848152602001838152602001828103825285818151815260200191508051906020019080838360005b83811015610ad3578082015181840152602081019050610ab8565b50505050905090810190601f168015610b005780820380516001836020036101000a031916815260200191505b509550505050505060405180910390a15050565b60015481565b6006602052806000526040600020600091509050806000015490806001018054600181600116156101000203166002900480601f016020809104026020016040519081016040528092919081815260200182805460018160011615610100020316600290048015610bcc5780601f10610ba157610100808354040283529160200191610bcc565b820191906000526020600020905b815481529060010190602001808311610baf57829003601f168201915b5050505050908060020154908060030160009054906101000a900473ffffffffffffffffffffffffffffffffffffffff16905084565b60056020528160005260406000206020528060005260406000206000915091509054906101000a900460ff1681565b60025481565b600015156005600085815260200190815260200160002060003373ffffffffffffffffffffffffffffffffffffffff1673ffffffffffffffffffffffffffffffffffffffff16815260200190815260200160002060009054906101000a900460ff16151514610d0e576040517f08c379a000000000000000000000000000000000000000000000000000000000815260040180806020018281038252601e8152602001807f616c726561647920766f746520666f7220746869732070726f706f73616c000081525060200191505060405180910390fd5b42600360008581526020019081526020016000206003015411610d99576040517f08c379a00000000000000000000000000000000000000000000000000000000081526004018080602001828103825260168152602001807f766f74696e6720706572696f642066696e69736865640000000000000000000081525060200191505060405180910390fd5b816003600085815260200190815260200160002060040154016003600085815260200190815260200160002060040181905550806003600085815260200190815260200160002060050154016003600085815260200190815260200160002060050181905550600360008481526020019081526020016000206004015460036000858152602001908152602001600020600501540160036000858152602001908152602001600020600601819055506002600081548092919060010191905055506000821461100f5760405180608001604052808481526020016040518060400160405280600381526020017f796573000000000000000000000000000000000000000000000000000000000081525081526020014281526020013373ffffffffffffffffffffffffffffffffffffffff16815250600660006002548152602001908152602001600020600082015181600001556020820151816001019080519060200190610f099291906112ab565b506040820151816002015560608201518160030160006101000a81548173ffffffffffffffffffffffffffffffffffffffff021916908373ffffffffffffffffffffffffffffffffffffffff1602179055509050507f9b42849fdd36a1cd3e24f1038e39e41e2a3dab48d7fbfcf0179b47e4dfece2b6334285604051808473ffffffffffffffffffffffffffffffffffffffff1673ffffffffffffffffffffffffffffffffffffffff16815260200183815260200182815260200180602001828103825260038152602001807f796573000000000000000000000000000000000000000000000000000000000081525060200194505050505060405180910390a16111b8565b60405180608001604052808481526020016040518060400160405280600281526020017f6e6f00000000000000000000000000000000000000000000000000000000000081525081526020014281526020013373ffffffffffffffffffffffffffffffffffffffff168152506006600060025481526020019081526020016000206000820151816000015560208201518160010190805190602001906110b69291906112ab565b506040820151816002015560608201518160030160006101000a81548173ffffffffffffffffffffffffffffffffffffffff021916908373ffffffffffffffffffffffffffffffffffffffff1602179055509050507f9b42849fdd36a1cd3e24f1038e39e41e2a3dab48d7fbfcf0179b47e4dfece2b6334285604051808473ffffffffffffffffffffffffffffffffffffffff1673ffffffffffffffffffffffffffffffffffffffff16815260200183815260200182815260200180602001828103825260028152602001807f6e6f00000000000000000000000000000000000000000000000000000000000081525060200194505050505060405180910390a15b60016005600085815260200190815260200160002060003373ffffffffffffffffffffffffffffffffffffffff1673ffffffffffffffffffffffffffffffffffffffff16815260200190815260200160002060006101000a81548160ff021916908315150217905550336004600085815260200190815260200160002060006101000a81548173ffffffffffffffffffffffffffffffffffffffff021916908373ffffffffffffffffffffffffffffffffffffffff160217905550505050565b60046020528060005260406000206000915054906101000a900473ffffffffffffffffffffffffffffffffffffffff1681565b828054600181600116156101000203166002900490600052602060002090601f016020900481019282601f106112ec57805160ff191683800117855561131a565b8280016001018555821561131a579182015b828111156113195782518255916020019190600101906112fe565b5b509050611327919061132b565b5090565b61134d91905b80821115611349576000816000905550600101611331565b5090565b9056fea265627a7a72315820b898bcc82e8095aeb1ab3102218fa486a9b7c8ee7394e43955967b72c6d23e0b64736f6c63430005100032",
  "source": "pragma solidity ^0.5.0;\r\n\r\nimport \"./DexToken.sol\";\r\n\r\ncontract Gouvernance {\r\n  DexToken public dexToken;\r\n  uint public nbProposal = 0;\r\n  uint public nbVote = 0;\r\n\r\n\r\n  constructor(DexToken _dexToken) public {\r\n    dexToken = _dexToken;\r\n  }\r\n\r\n  struct Proposal {\r\n    uint id;\r\n    string description;\r\n    uint createAt;\r\n    uint finishAt;\r\n    uint yes;\r\n    uint no;\r\n    uint total;\r\n    string state;\r\n    address createdBy;\r\n  }\r\n\r\n  struct Vote {\r\n    uint prposalId;\r\n    string result;\r\n    uint timestamp;\r\n    address voter;\r\n  }\r\n\r\n  mapping (uint => Proposal) public proposals;\r\n  mapping (uint => address) public proposalToAccount;\r\n  mapping (uint => mapping (address => bool)) public hasVotedForProposal;\r\n  mapping (uint => Vote) public votes;\r\n\r\n  event ProposalCreated(\r\n    address account,\r\n    string description,\r\n    uint createAt,\r\n    uint finishAt\r\n  );\r\n\r\n  event VoteSent(\r\n    address account,\r\n    uint timestamp,\r\n    uint proposalId,\r\n    string result\r\n  );\r\n\r\n\r\n  function createProposal (string memory _description, uint _finishAt) public {\r\n    //Require 100000 dextoken to create a proposals\r\n    require(dexToken.balanceOf(msg.sender) >= 10000, \"You must have at least 10000 DEX\");\r\n\r\n    nbProposal++;\r\n    proposals[nbProposal] = Proposal(nbProposal, _description, block.timestamp, _finishAt, 0, 0, 0, \"In Progress\", msg.sender);\r\n    proposalToAccount[nbProposal] = msg.sender;\r\n\r\n    emit ProposalCreated(msg.sender, _description, block.timestamp, _finishAt);\r\n  }\r\n\r\n  function voteForProposal(uint _proposalId, uint _yes, uint _no) public {\r\n    //Require that the address didn't has vote for the proposal\r\n    require(hasVotedForProposal[_proposalId][msg.sender] == false, \"already vote for this proposal\");\r\n    //Require current timestamp is before finishAt\r\n    require(proposals[_proposalId].finishAt > block.timestamp, \"voting period finished\");\r\n\r\n    proposals[_proposalId].yes = proposals[_proposalId].yes + _yes;\r\n    proposals[_proposalId].no = proposals[_proposalId].no + _no;\r\n    proposals[_proposalId].total = proposals[_proposalId].no + proposals[_proposalId].yes;\r\n\r\n    nbVote ++;\r\n\r\n    if(_yes != 0) {\r\n      votes[nbVote] = Vote(_proposalId, \"yes\", block.timestamp, msg.sender);\r\n      emit VoteSent(msg.sender, block.timestamp, _proposalId, \"yes\");\r\n    }\r\n    else {\r\n      votes[nbVote] = Vote(_proposalId, \"no\", block.timestamp, msg.sender);\r\n      emit VoteSent(msg.sender, block.timestamp, _proposalId, \"no\");\r\n    }\r\n\r\n    hasVotedForProposal[_proposalId][msg.sender] = true;\r\n    proposalToAccount[_proposalId] = msg.sender;\r\n  }\r\n\r\n  \r\n}\r\n",
  "sourcePath": "C:/Users/romai/Desktop/PROGRAMMATION/solidity/eth_swap-master/src/contracts/Gouvernance.sol",
  "compiler": {
    "name": "solc",
    "version": "0.5.16+commit.9c3226ce.Emscripten.clang"
  },
  "schemaVersion": "3.3.4",
  "updatedAt": "2022-03-02T19:25:32.511Z",
  "networkType": "ethereum",
  "devdoc": {
    "methods": {}
  },
  "userdoc": {
    "methods": {}
  }
}