{
  "contractName": "PoolLiquidity",
  "abi": [
    {
      "inputs": [
        {
          "internalType": "contract DexToken",
          "name": "_dexToken",
          "type": "address"
        },
        {
          "internalType": "contract Token",
          "name": "_token",
          "type": "address"
        },
        {
          "internalType": "contract BroToken",
          "name": "_broToken",
          "type": "address"
        },
        {
          "internalType": "uint256",
          "name": "_rewardTime",
          "type": "uint256"
        }
      ],
      "payable": false,
      "stateMutability": "nonpayable",
      "type": "constructor"
    },
    {
      "constant": true,
      "inputs": [],
      "name": "broToken",
      "outputs": [
        {
          "internalType": "contract BroToken",
          "name": "",
          "type": "address"
        }
      ],
      "payable": false,
      "stateMutability": "view",
      "type": "function"
    },
    {
      "constant": true,
      "inputs": [
        {
          "internalType": "address",
          "name": "",
          "type": "address"
        }
      ],
      "name": "broTokenClaimTime",
      "outputs": [
        {
          "internalType": "uint256",
          "name": "",
          "type": "uint256"
        }
      ],
      "payable": false,
      "stateMutability": "view",
      "type": "function"
    },
    {
      "constant": true,
      "inputs": [
        {
          "internalType": "address",
          "name": "",
          "type": "address"
        }
      ],
      "name": "broTokenDepositTime",
      "outputs": [
        {
          "internalType": "uint256",
          "name": "",
          "type": "uint256"
        }
      ],
      "payable": false,
      "stateMutability": "view",
      "type": "function"
    },
    {
      "constant": true,
      "inputs": [
        {
          "internalType": "uint256",
          "name": "",
          "type": "uint256"
        }
      ],
      "name": "broTokenStakers",
      "outputs": [
        {
          "internalType": "address",
          "name": "",
          "type": "address"
        }
      ],
      "payable": false,
      "stateMutability": "view",
      "type": "function"
    },
    {
      "constant": true,
      "inputs": [
        {
          "internalType": "address",
          "name": "",
          "type": "address"
        }
      ],
      "name": "broTokenStakingBalance",
      "outputs": [
        {
          "internalType": "uint256",
          "name": "",
          "type": "uint256"
        }
      ],
      "payable": false,
      "stateMutability": "view",
      "type": "function"
    },
    {
      "constant": true,
      "inputs": [],
      "name": "dexToken",
      "outputs": [
        {
          "internalType": "contract DexToken",
          "name": "",
          "type": "address"
        }
      ],
      "payable": false,
      "stateMutability": "view",
      "type": "function"
    },
    {
      "constant": true,
      "inputs": [
        {
          "internalType": "address",
          "name": "",
          "type": "address"
        }
      ],
      "name": "hasStakedBroToken",
      "outputs": [
        {
          "internalType": "bool",
          "name": "",
          "type": "bool"
        }
      ],
      "payable": false,
      "stateMutability": "view",
      "type": "function"
    },
    {
      "constant": true,
      "inputs": [
        {
          "internalType": "address",
          "name": "",
          "type": "address"
        }
      ],
      "name": "hasStakedToken",
      "outputs": [
        {
          "internalType": "bool",
          "name": "",
          "type": "bool"
        }
      ],
      "payable": false,
      "stateMutability": "view",
      "type": "function"
    },
    {
      "constant": true,
      "inputs": [
        {
          "internalType": "address",
          "name": "",
          "type": "address"
        }
      ],
      "name": "isStakingBroToken",
      "outputs": [
        {
          "internalType": "bool",
          "name": "",
          "type": "bool"
        }
      ],
      "payable": false,
      "stateMutability": "view",
      "type": "function"
    },
    {
      "constant": true,
      "inputs": [
        {
          "internalType": "address",
          "name": "",
          "type": "address"
        }
      ],
      "name": "isStakingToken",
      "outputs": [
        {
          "internalType": "bool",
          "name": "",
          "type": "bool"
        }
      ],
      "payable": false,
      "stateMutability": "view",
      "type": "function"
    },
    {
      "constant": true,
      "inputs": [],
      "name": "name",
      "outputs": [
        {
          "internalType": "string",
          "name": "",
          "type": "string"
        }
      ],
      "payable": false,
      "stateMutability": "view",
      "type": "function"
    },
    {
      "constant": true,
      "inputs": [],
      "name": "owner",
      "outputs": [
        {
          "internalType": "address",
          "name": "",
          "type": "address"
        }
      ],
      "payable": false,
      "stateMutability": "view",
      "type": "function"
    },
    {
      "constant": true,
      "inputs": [],
      "name": "rewardTime",
      "outputs": [
        {
          "internalType": "uint256",
          "name": "",
          "type": "uint256"
        }
      ],
      "payable": false,
      "stateMutability": "view",
      "type": "function"
    },
    {
      "constant": true,
      "inputs": [],
      "name": "token",
      "outputs": [
        {
          "internalType": "contract Token",
          "name": "",
          "type": "address"
        }
      ],
      "payable": false,
      "stateMutability": "view",
      "type": "function"
    },
    {
      "constant": true,
      "inputs": [
        {
          "internalType": "address",
          "name": "",
          "type": "address"
        }
      ],
      "name": "tokenClaimTime",
      "outputs": [
        {
          "internalType": "uint256",
          "name": "",
          "type": "uint256"
        }
      ],
      "payable": false,
      "stateMutability": "view",
      "type": "function"
    },
    {
      "constant": true,
      "inputs": [
        {
          "internalType": "address",
          "name": "",
          "type": "address"
        }
      ],
      "name": "tokenDepositTime",
      "outputs": [
        {
          "internalType": "uint256",
          "name": "",
          "type": "uint256"
        }
      ],
      "payable": false,
      "stateMutability": "view",
      "type": "function"
    },
    {
      "constant": true,
      "inputs": [
        {
          "internalType": "uint256",
          "name": "",
          "type": "uint256"
        }
      ],
      "name": "tokenStakers",
      "outputs": [
        {
          "internalType": "address",
          "name": "",
          "type": "address"
        }
      ],
      "payable": false,
      "stateMutability": "view",
      "type": "function"
    },
    {
      "constant": true,
      "inputs": [
        {
          "internalType": "address",
          "name": "",
          "type": "address"
        }
      ],
      "name": "tokenStakingBalance",
      "outputs": [
        {
          "internalType": "uint256",
          "name": "",
          "type": "uint256"
        }
      ],
      "payable": false,
      "stateMutability": "view",
      "type": "function"
    },
    {
      "constant": false,
      "inputs": [
        {
          "internalType": "string",
          "name": "nameToken",
          "type": "string"
        },
        {
          "internalType": "uint256",
          "name": "_amount",
          "type": "uint256"
        },
        {
          "internalType": "uint256",
          "name": "_depositTime",
          "type": "uint256"
        }
      ],
      "name": "stakeTokens",
      "outputs": [],
      "payable": false,
      "stateMutability": "nonpayable",
      "type": "function"
    },
    {
      "constant": false,
      "inputs": [
        {
          "internalType": "string",
          "name": "nameToken",
          "type": "string"
        },
        {
          "internalType": "uint256",
          "name": "_amount",
          "type": "uint256"
        }
      ],
      "name": "unstakeTokens",
      "outputs": [],
      "payable": false,
      "stateMutability": "nonpayable",
      "type": "function"
    },
    {
      "constant": false,
      "inputs": [
        {
          "internalType": "string",
          "name": "nameToken",
          "type": "string"
        },
        {
          "internalType": "uint256",
          "name": "_claimTime",
          "type": "uint256"
        }
      ],
      "name": "issueTokens",
      "outputs": [],
      "payable": false,
      "stateMutability": "nonpayable",
      "type": "function"
    }
  ],
  "bytecode": "0x60806040526040518060400160405280600f81526020017f4461707020546f6b656e204661726d00000000000000000000000000000000008152506000908051906020019062000051929190620001c9565b503480156200005f57600080fd5b506040516200244d3803806200244d833981810160405260808110156200008557600080fd5b810190808051906020019092919080519060200190929190805190602001909291908051906020019092919050505081600460006101000a81548173ffffffffffffffffffffffffffffffffffffffff021916908373ffffffffffffffffffffffffffffffffffffffff16021790555082600360006101000a81548173ffffffffffffffffffffffffffffffffffffffff021916908373ffffffffffffffffffffffffffffffffffffffff16021790555083600260006101000a81548173ffffffffffffffffffffffffffffffffffffffff021916908373ffffffffffffffffffffffffffffffffffffffff1602179055508060058190555033600160006101000a81548173ffffffffffffffffffffffffffffffffffffffff021916908373ffffffffffffffffffffffffffffffffffffffff1602179055505050505062000278565b828054600181600116156101000203166002900490600052602060002090601f016020900481019282601f106200020c57805160ff19168380011785556200023d565b828001600101855582156200023d579182015b828111156200023c5782518255916020019190600101906200021f565b5b5090506200024c919062000250565b5090565b6200027591905b808211156200027157600081600090555060010162000257565b5090565b90565b6121c580620002886000396000f3fe608060405234801561001057600080fd5b50600436106101365760003560e01c806336a8e097116100b8578063b0d59b4f1161007c578063b0d59b4f146106cf578063d088dd6114610727578063ece255371461077f578063ee88f0a01461084e578063fc0c546a14610913578063ffc7efc21461095d57610136565b806336a8e0971461055b57806337e4705d146105b75780638da5cb5b1461060f5780638efc20bf1461065957806391b66fd5146106b157610136565b80632a9c1d2e116100ff5780632a9c1d2e1461032e5780632b8d5fc11461039c5780632ce22810146103e6578063350bedfb146104ab578063352344bf1461050357610136565b8062d4df261461013b57806306fdde031461019757806315a87b341461021a57806316cfc4c114610276578063280041dd146102c0575b600080fd5b61017d6004803603602081101561015157600080fd5b81019080803573ffffffffffffffffffffffffffffffffffffffff1690602001909291905050506109b9565b604051808215151515815260200191505060405180910390f35b61019f6109d9565b6040518080602001828103825283818151815260200191508051906020019080838360005b838110156101df5780820151818401526020810190506101c4565b50505050905090810190601f16801561020c5780820380516001836020036101000a031916815260200191505b509250505060405180910390f35b61025c6004803603602081101561023057600080fd5b81019080803573ffffffffffffffffffffffffffffffffffffffff169060200190929190505050610a77565b604051808215151515815260200191505060405180910390f35b61027e610a97565b604051808273ffffffffffffffffffffffffffffffffffffffff1673ffffffffffffffffffffffffffffffffffffffff16815260200191505060405180910390f35b6102ec600480360360208110156102d657600080fd5b8101908080359060200190929190505050610abd565b604051808273ffffffffffffffffffffffffffffffffffffffff1673ffffffffffffffffffffffffffffffffffffffff16815260200191505060405180910390f35b61035a6004803603602081101561034457600080fd5b8101908080359060200190929190505050610af9565b604051808273ffffffffffffffffffffffffffffffffffffffff1673ffffffffffffffffffffffffffffffffffffffff16815260200191505060405180910390f35b6103a4610b35565b604051808273ffffffffffffffffffffffffffffffffffffffff1673ffffffffffffffffffffffffffffffffffffffff16815260200191505060405180910390f35b6104a9600480360360408110156103fc57600080fd5b810190808035906020019064010000000081111561041957600080fd5b82018360208201111561042b57600080fd5b8035906020019184600183028401116401000000008311171561044d57600080fd5b91908080601f016020809104026020016040519081016040528093929190818152602001838380828437600081840152601f19601f82011690508083019250505050505050919291929080359060200190929190505050610b5b565b005b6104ed600480360360208110156104c157600080fd5b81019080803573ffffffffffffffffffffffffffffffffffffffff1690602001909291905050506110b3565b6040518082815260200191505060405180910390f35b6105456004803603602081101561051957600080fd5b81019080803573ffffffffffffffffffffffffffffffffffffffff1690602001909291905050506110cb565b6040518082815260200191505060405180910390f35b61059d6004803603602081101561057157600080fd5b81019080803573ffffffffffffffffffffffffffffffffffffffff1690602001909291905050506110e3565b604051808215151515815260200191505060405180910390f35b6105f9600480360360208110156105cd57600080fd5b81019080803573ffffffffffffffffffffffffffffffffffffffff169060200190929190505050611103565b6040518082815260200191505060405180910390f35b61061761111b565b604051808273ffffffffffffffffffffffffffffffffffffffff1673ffffffffffffffffffffffffffffffffffffffff16815260200191505060405180910390f35b61069b6004803603602081101561066f57600080fd5b81019080803573ffffffffffffffffffffffffffffffffffffffff169060200190929190505050611141565b6040518082815260200191505060405180910390f35b6106b9611159565b6040518082815260200191505060405180910390f35b610711600480360360208110156106e557600080fd5b81019080803573ffffffffffffffffffffffffffffffffffffffff16906020019092919050505061115f565b6040518082815260200191505060405180910390f35b6107696004803603602081101561073d57600080fd5b81019080803573ffffffffffffffffffffffffffffffffffffffff169060200190929190505050611177565b6040518082815260200191505060405180910390f35b61084c6004803603606081101561079557600080fd5b81019080803590602001906401000000008111156107b257600080fd5b8201836020820111156107c457600080fd5b803590602001918460018302840111640100000000831117156107e657600080fd5b91908080601f016020809104026020016040519081016040528093929190818152602001838380828437600081840152601f19601f820116905080830192505050505050509192919290803590602001909291908035906020019092919050505061118f565b005b6109116004803603604081101561086457600080fd5b810190808035906020019064010000000081111561088157600080fd5b82018360208201111561089357600080fd5b803590602001918460018302840111640100000000831117156108b557600080fd5b91908080601f016020809104026020016040519081016040528093929190818152602001838380828437600081840152601f19601f820116905080830192505050505050509192919290803590602001909291905050506119d9565b005b61091b61214a565b604051808273ffffffffffffffffffffffffffffffffffffffff1673ffffffffffffffffffffffffffffffffffffffff16815260200191505060405180910390f35b61099f6004803603602081101561097357600080fd5b81019080803573ffffffffffffffffffffffffffffffffffffffff169060200190929190505050612170565b604051808215151515815260200191505060405180910390f35b600f6020528060005260406000206000915054906101000a900460ff1681565b60008054600181600116156101000203166002900480601f016020809104026020016040519081016040528092919081815260200182805460018160011615610100020316600290048015610a6f5780601f10610a4457610100808354040283529160200191610a6f565b820191906000526020600020905b815481529060010190602001808311610a5257829003601f168201915b505050505081565b60086020528060005260406000206000915054906101000a900460ff1681565b600260009054906101000a900473ffffffffffffffffffffffffffffffffffffffff1681565b600c8181548110610aca57fe5b906000526020600020016000915054906101000a900473ffffffffffffffffffffffffffffffffffffffff1681565b60068181548110610b0657fe5b906000526020600020016000915054906101000a900473ffffffffffffffffffffffffffffffffffffffff1681565b600460009054906101000a900473ffffffffffffffffffffffffffffffffffffffff1681565b600160009054906101000a900473ffffffffffffffffffffffffffffffffffffffff1673ffffffffffffffffffffffffffffffffffffffff163373ffffffffffffffffffffffffffffffffffffffff1614610c1e576040517f08c379a00000000000000000000000000000000000000000000000000000000081526004018080602001828103825260188152602001807f63616c6c6572206d75737420626520746865206f776e6572000000000000000081525060200191505060405180910390fd5b60405160200180807f4441505000000000000000000000000000000000000000000000000000000000815250600401905060405160208183030381529060405280519060200120826040516020018082805190602001908083835b60208310610c9c5780518252602082019150602081019050602083039250610c79565b6001836020036101000a038019825116818451168082178552505050505050905001915050604051602081830303815290604052805190602001201415610ec3576000600760003373ffffffffffffffffffffffffffffffffffffffff1673ffffffffffffffffffffffffffffffffffffffff1681526020019081526020016000205490506000600554600a60003373ffffffffffffffffffffffffffffffffffffffff1673ffffffffffffffffffffffffffffffffffffffff1681526020019081526020016000205401905060008090506000831115610ebb575b42821015610d9157828101905060055482019150610d78565b600260009054906101000a900473ffffffffffffffffffffffffffffffffffffffff1673ffffffffffffffffffffffffffffffffffffffff1663a9059cbb33836040518363ffffffff1660e01b8152600401808373ffffffffffffffffffffffffffffffffffffffff1673ffffffffffffffffffffffffffffffffffffffff16815260200182815260200192505050602060405180830381600087803b158015610e3a57600080fd5b505af1158015610e4e573d6000803e3d6000fd5b505050506040513d6020811015610e6457600080fd5b81019080805190602001909291905050505083600a60003373ffffffffffffffffffffffffffffffffffffffff1673ffffffffffffffffffffffffffffffffffffffff168152602001908152602001600020819055505b5050506110af565b60006064600d60003373ffffffffffffffffffffffffffffffffffffffff1673ffffffffffffffffffffffffffffffffffffffff1681526020019081526020016000205481610f0e57fe5b0490506000600554601060003373ffffffffffffffffffffffffffffffffffffffff1673ffffffffffffffffffffffffffffffffffffffff16815260200190815260200160002054019050600080905060008311156110ab575b42821015610f8157828101905060055482019150610f68565b600260009054906101000a900473ffffffffffffffffffffffffffffffffffffffff1673ffffffffffffffffffffffffffffffffffffffff1663a9059cbb33836040518363ffffffff1660e01b8152600401808373ffffffffffffffffffffffffffffffffffffffff1673ffffffffffffffffffffffffffffffffffffffff16815260200182815260200192505050602060405180830381600087803b15801561102a57600080fd5b505af115801561103e573d6000803e3d6000fd5b505050506040513d602081101561105457600080fd5b81019080805190602001909291905050505083601060003373ffffffffffffffffffffffffffffffffffffffff1673ffffffffffffffffffffffffffffffffffffffff168152602001908152602001600020819055505b5050505b5050565b60106020528060005260406000206000915090505481565b600a6020528060005260406000206000915090505481565b60096020528060005260406000206000915054906101000a900460ff1681565b60116020528060005260406000206000915090505481565b600160009054906101000a900473ffffffffffffffffffffffffffffffffffffffff1681565b600b6020528060005260406000206000915090505481565b60055481565b600d6020528060005260406000206000915090505481565b60076020528060005260406000206000915090505481565b60405160200180807f4441505000000000000000000000000000000000000000000000000000000000815250600401905060405160208183030381529060405280519060200120836040516020018082805190602001908083835b6020831061120d57805182526020820191506020810190506020830392506111ea565b6001836020036101000a03801982511681845116808217855250505050505090500191505060405160208183030381529060405280519060200120141561161357600082116112c4576040517f08c379a00000000000000000000000000000000000000000000000000000000081526004018080602001828103825260128152602001807f616d6f756e742063616e6e6f742062652030000000000000000000000000000081525060200191505060405180910390fd5b600360009054906101000a900473ffffffffffffffffffffffffffffffffffffffff1673ffffffffffffffffffffffffffffffffffffffff166323b872dd3330856040518463ffffffff1660e01b8152600401808473ffffffffffffffffffffffffffffffffffffffff1673ffffffffffffffffffffffffffffffffffffffff1681526020018373ffffffffffffffffffffffffffffffffffffffff1673ffffffffffffffffffffffffffffffffffffffff1681526020018281526020019350505050602060405180830381600087803b1580156113a157600080fd5b505af11580156113b5573d6000803e3d6000fd5b505050506040513d60208110156113cb57600080fd5b81019080805190602001909291905050505081600760003373ffffffffffffffffffffffffffffffffffffffff1673ffffffffffffffffffffffffffffffffffffffff1681526020019081526020016000205401600760003373ffffffffffffffffffffffffffffffffffffffff1673ffffffffffffffffffffffffffffffffffffffff1681526020019081526020016000208190555080600a60003373ffffffffffffffffffffffffffffffffffffffff1673ffffffffffffffffffffffffffffffffffffffff16815260200190815260200160002081905550600860003373ffffffffffffffffffffffffffffffffffffffff1673ffffffffffffffffffffffffffffffffffffffff16815260200190815260200160002060009054906101000a900460ff1661155e5760063390806001815401808255809150509060018203906000526020600020016000909192909190916101000a81548173ffffffffffffffffffffffffffffffffffffffff021916908373ffffffffffffffffffffffffffffffffffffffff160217905550505b6001600960003373ffffffffffffffffffffffffffffffffffffffff1673ffffffffffffffffffffffffffffffffffffffff16815260200190815260200160002060006101000a81548160ff0219169083151502179055506001600860003373ffffffffffffffffffffffffffffffffffffffff1673ffffffffffffffffffffffffffffffffffffffff16815260200190815260200160002060006101000a81548160ff0219169083151502179055506119d4565b60008211611689576040517f08c379a00000000000000000000000000000000000000000000000000000000081526004018080602001828103825260128152602001807f616d6f756e742063616e6e6f742062652030000000000000000000000000000081525060200191505060405180910390fd5b600460009054906101000a900473ffffffffffffffffffffffffffffffffffffffff1673ffffffffffffffffffffffffffffffffffffffff166323b872dd3330856040518463ffffffff1660e01b8152600401808473ffffffffffffffffffffffffffffffffffffffff1673ffffffffffffffffffffffffffffffffffffffff1681526020018373ffffffffffffffffffffffffffffffffffffffff1673ffffffffffffffffffffffffffffffffffffffff1681526020018281526020019350505050602060405180830381600087803b15801561176657600080fd5b505af115801561177a573d6000803e3d6000fd5b505050506040513d602081101561179057600080fd5b81019080805190602001909291905050505081600d60003373ffffffffffffffffffffffffffffffffffffffff1673ffffffffffffffffffffffffffffffffffffffff1681526020019081526020016000205401600d60003373ffffffffffffffffffffffffffffffffffffffff1673ffffffffffffffffffffffffffffffffffffffff1681526020019081526020016000208190555080601060003373ffffffffffffffffffffffffffffffffffffffff1673ffffffffffffffffffffffffffffffffffffffff16815260200190815260200160002081905550600e60003373ffffffffffffffffffffffffffffffffffffffff1673ffffffffffffffffffffffffffffffffffffffff16815260200190815260200160002060009054906101000a900460ff1661192357600c3390806001815401808255809150509060018203906000526020600020016000909192909190916101000a81548173ffffffffffffffffffffffffffffffffffffffff021916908373ffffffffffffffffffffffffffffffffffffffff160217905550505b6001600f60003373ffffffffffffffffffffffffffffffffffffffff1673ffffffffffffffffffffffffffffffffffffffff16815260200190815260200160002060006101000a81548160ff0219169083151502179055506001600e60003373ffffffffffffffffffffffffffffffffffffffff1673ffffffffffffffffffffffffffffffffffffffff16815260200190815260200160002060006101000a81548160ff0219169083151502179055505b505050565b60405160200180807f4441505000000000000000000000000000000000000000000000000000000000815250600401905060405160208183030381529060405280519060200120826040516020018082805190602001908083835b60208310611a575780518252602082019150602081019050602083039250611a34565b6001836020036101000a038019825116818451168082178552505050505050905001915050604051602081830303815290604052805190602001201415611df1576000600760003373ffffffffffffffffffffffffffffffffffffffff1673ffffffffffffffffffffffffffffffffffffffff16815260200190815260200160002054905060008111611b52576040517f08c379a000000000000000000000000000000000000000000000000000000000815260040180806020018281038252601b8152602001807f7374616b696e672062616c616e63652063616e6e6f742062652030000000000081525060200191505060405180910390fd5b600360009054906101000a900473ffffffffffffffffffffffffffffffffffffffff1673ffffffffffffffffffffffffffffffffffffffff1663a9059cbb33846040518363ffffffff1660e01b8152600401808373ffffffffffffffffffffffffffffffffffffffff1673ffffffffffffffffffffffffffffffffffffffff16815260200182815260200192505050602060405180830381600087803b158015611bfb57600080fd5b505af1158015611c0f573d6000803e3d6000fd5b505050506040513d6020811015611c2557600080fd5b81019080805190602001909291905050505081600760003373ffffffffffffffffffffffffffffffffffffffff1673ffffffffffffffffffffffffffffffffffffffff1681526020019081526020016000205403600760003373ffffffffffffffffffffffffffffffffffffffff1673ffffffffffffffffffffffffffffffffffffffff168152602001908152602001600020819055506000600760003373ffffffffffffffffffffffffffffffffffffffff1673ffffffffffffffffffffffffffffffffffffffff168152602001908152602001600020541415611d4a576000600a60003373ffffffffffffffffffffffffffffffffffffffff1673ffffffffffffffffffffffffffffffffffffffff168152602001908152602001600020819055505b6000600760003373ffffffffffffffffffffffffffffffffffffffff1673ffffffffffffffffffffffffffffffffffffffff168152602001908152602001600020541415611deb576000600960003373ffffffffffffffffffffffffffffffffffffffff1673ffffffffffffffffffffffffffffffffffffffff16815260200190815260200160002060006101000a81548160ff0219169083151502179055505b50612146565b6000600d60003373ffffffffffffffffffffffffffffffffffffffff1673ffffffffffffffffffffffffffffffffffffffff16815260200190815260200160002054905060008111611eab576040517f08c379a000000000000000000000000000000000000000000000000000000000815260040180806020018281038252601b8152602001807f7374616b696e672062616c616e63652063616e6e6f742062652030000000000081525060200191505060405180910390fd5b600460009054906101000a900473ffffffffffffffffffffffffffffffffffffffff1673ffffffffffffffffffffffffffffffffffffffff1663a9059cbb33846040518363ffffffff1660e01b8152600401808373ffffffffffffffffffffffffffffffffffffffff1673ffffffffffffffffffffffffffffffffffffffff16815260200182815260200192505050602060405180830381600087803b158015611f5457600080fd5b505af1158015611f68573d6000803e3d6000fd5b505050506040513d6020811015611f7e57600080fd5b81019080805190602001909291905050505081600d60003373ffffffffffffffffffffffffffffffffffffffff1673ffffffffffffffffffffffffffffffffffffffff1681526020019081526020016000205403600d60003373ffffffffffffffffffffffffffffffffffffffff1673ffffffffffffffffffffffffffffffffffffffff168152602001908152602001600020819055506000600d60003373ffffffffffffffffffffffffffffffffffffffff1673ffffffffffffffffffffffffffffffffffffffff1681526020019081526020016000205414156120a3576000601060003373ffffffffffffffffffffffffffffffffffffffff1673ffffffffffffffffffffffffffffffffffffffff168152602001908152602001600020819055505b6000600d60003373ffffffffffffffffffffffffffffffffffffffff1673ffffffffffffffffffffffffffffffffffffffff168152602001908152602001600020541415612144576000600f60003373ffffffffffffffffffffffffffffffffffffffff1673ffffffffffffffffffffffffffffffffffffffff16815260200190815260200160002060006101000a81548160ff0219169083151502179055505b505b5050565b600360009054906101000a900473ffffffffffffffffffffffffffffffffffffffff1681565b600e6020528060005260406000206000915054906101000a900460ff168156fea265627a7a72315820688e1c032a13cd27804b0abd567cab0353328d91629947913bb7a062e2bb3e8164736f6c63430005100032",
  "source": "pragma solidity ^0.5.0;\r\n\r\nimport \"./DexToken.sol\";\r\nimport \"./BroToken.sol\";\r\nimport \"./Token.sol\";\r\n\r\n\r\ncontract PoolLiquidity {\r\n    string public name = \"Dapp Token Farm\";\r\n    address public owner;\r\n    DexToken public dexToken;\r\n    Token public token;\r\n    BroToken public broToken;\r\n\r\n    uint public rewardTime;\r\n\r\n    //token staking\r\n    address[] public tokenStakers;\r\n    mapping(address => uint) public tokenStakingBalance;\r\n    mapping(address => bool) public hasStakedToken;\r\n    mapping(address => bool) public isStakingToken;\r\n    mapping(address => uint256) public tokenDepositTime;\r\n    mapping(address => uint256) public tokenClaimTime;\r\n\r\n\r\n    //broToken staking\r\n    address[] public broTokenStakers;\r\n    mapping(address => uint) public broTokenStakingBalance;\r\n    mapping(address => bool) public hasStakedBroToken;\r\n    mapping(address => bool) public isStakingBroToken;\r\n    mapping(address => uint256) public broTokenDepositTime;\r\n    mapping(address => uint256) public broTokenClaimTime;\r\n\r\n\r\n    constructor(DexToken _dexToken, Token _token, BroToken _broToken, uint _rewardTime) public {\r\n        broToken = _broToken;\r\n        token = _token;\r\n        dexToken = _dexToken;\r\n        rewardTime = _rewardTime;\r\n        owner = msg.sender;\r\n    }\r\n\r\n    function stakeTokens(string memory nameToken, uint _amount, uint _depositTime) public {\r\n        if(keccak256(abi.encodePacked(nameToken))==keccak256(abi.encodePacked(\"DAPP\")))\r\n        {\r\n          // Require amount greater than 0\r\n          require(_amount > 0, \"amount cannot be 0\");\r\n\r\n          // Trasnfer Mock Dai tokens to this contract for staking\r\n          token.transferFrom(msg.sender, address(this), _amount);\r\n\r\n          // Update staking balance\r\n          tokenStakingBalance[msg.sender] = tokenStakingBalance[msg.sender] + _amount;\r\n          tokenDepositTime[msg.sender] = _depositTime;\r\n\r\n          // Add user to stakers array *only* if they haven't staked already\r\n          if(!hasStakedToken[msg.sender]) {\r\n              tokenStakers.push(msg.sender);\r\n          }\r\n\r\n          // Update staking status\r\n          isStakingToken[msg.sender] = true;\r\n          hasStakedToken[msg.sender] = true;\r\n        }\r\n        else{\r\n          // Require amount greater than 0\r\n          require(_amount > 0, \"amount cannot be 0\");\r\n\r\n          // Trasnfer Mock Dai tokens to this contract for staking\r\n          broToken.transferFrom(msg.sender, address(this), _amount);\r\n\r\n          // Update staking balance\r\n          broTokenStakingBalance[msg.sender] = broTokenStakingBalance[msg.sender] + _amount;\r\n          broTokenDepositTime[msg.sender] = _depositTime;\r\n\r\n          // Add user to stakers array *only* if they haven't staked already\r\n          if(!hasStakedBroToken[msg.sender]) {\r\n              broTokenStakers.push(msg.sender);\r\n          }\r\n          // Update staking status\r\n          isStakingBroToken[msg.sender] = true;\r\n          hasStakedBroToken[msg.sender] = true;\r\n        }\r\n    }\r\n\r\n    // Unstaking Tokens (Withdraw)\r\n    function unstakeTokens(string memory nameToken, uint _amount) public {\r\n      if(keccak256(abi.encodePacked(nameToken))==keccak256(abi.encodePacked(\"DAPP\")))\r\n      {\r\n        // Fetch staking balance\r\n        uint balance = tokenStakingBalance[msg.sender];\r\n\r\n        // Require amount greater than 0\r\n        require(balance > 0, \"staking balance cannot be 0\");\r\n\r\n        // Transfer Mock Dai tokens to this contract for staking\r\n        token.transfer(msg.sender, _amount);\r\n\r\n        // Reset staking balance\r\n        tokenStakingBalance[msg.sender] = tokenStakingBalance[msg.sender] - _amount;\r\n        if(tokenStakingBalance[msg.sender] == 0){\r\n          tokenDepositTime[msg.sender] = 0;\r\n        }\r\n        // Update staking status\r\n        if(tokenStakingBalance[msg.sender] == 0) {\r\n          isStakingToken[msg.sender] = false;\r\n        }\r\n      }\r\n      else{\r\n        // Fetch staking balance\r\n        uint balance = broTokenStakingBalance[msg.sender];\r\n\r\n        // Require amount greater than 0\r\n        require(balance > 0, \"staking balance cannot be 0\");\r\n\r\n        // Transfer Mock Dai tokens to this contract for staking\r\n        broToken.transfer(msg.sender, _amount);\r\n\r\n        // Reset staking balance\r\n        broTokenStakingBalance[msg.sender] = broTokenStakingBalance[msg.sender] - _amount;\r\n        if(broTokenStakingBalance[msg.sender] == 0){\r\n          broTokenDepositTime[msg.sender] = 0;\r\n        }\r\n        // Update staking status\r\n        if(broTokenStakingBalance[msg.sender] == 0) {\r\n          isStakingBroToken[msg.sender] = false;\r\n        }\r\n      }\r\n    }\r\n\r\n    // Issuing Tokens\r\n    function issueTokens(string memory nameToken, uint _claimTime) public {\r\n        // Only owner can call this function\r\n        require(msg.sender == owner, \"caller must be the owner\");\r\n\r\n        if(keccak256(abi.encodePacked(nameToken))==keccak256(abi.encodePacked(\"DAPP\")))\r\n        {\r\n        // Issue tokens\r\n            uint balance = tokenStakingBalance[msg.sender];\r\n            uint time = tokenDepositTime[msg.sender] + rewardTime;\r\n            uint tokenWaitingReward = 0;\r\n            if(balance > 0) {\r\n              while(time < block.timestamp) {\r\n                tokenWaitingReward +=balance;\r\n                time +=rewardTime;\r\n              }\r\n                dexToken.transfer(msg.sender, tokenWaitingReward);\r\n                tokenDepositTime[msg.sender] = _claimTime;\r\n            }\r\n        }\r\n        else{\r\n          uint balance = broTokenStakingBalance[msg.sender] / 100;\r\n          uint time = broTokenDepositTime[msg.sender] + rewardTime;\r\n          uint tokenWaitingReward = 0;\r\n          if(balance > 0) {\r\n            while(time < block.timestamp) {\r\n              tokenWaitingReward +=balance;\r\n              time +=rewardTime;\r\n            }\r\n              dexToken.transfer(msg.sender, tokenWaitingReward);\r\n              broTokenDepositTime[msg.sender] = _claimTime;\r\n          }\r\n        }\r\n    }\r\n}\r\n",
  "sourcePath": "C:/Users/romai/Desktop/PROGRAMMATION/solidity/eth_swap-master/src/contracts/PoolLiquidity.sol",
  "compiler": {
    "name": "solc",
    "version": "0.5.16+commit.9c3226ce.Emscripten.clang"
  },
  "schemaVersion": "3.3.4",
  "updatedAt": "2022-03-02T19:25:32.492Z",
  "networkType": "ethereum",
  "devdoc": {
    "methods": {}
  },
  "userdoc": {
    "methods": {}
  }
}